{
  "address": "0x6a73b2f2BDef8E4f0152DAd346553B46Fae170C1",
  "abi": [
    {
      "inputs": [
        {
          "internalType": "address",
          "name": "initialOwner",
          "type": "address"
        }
      ],
      "stateMutability": "nonpayable",
      "type": "constructor"
    },
    {
      "inputs": [],
      "name": "ECDSAInvalidSignature",
      "type": "error"
    },
    {
      "inputs": [
        {
          "internalType": "uint256",
          "name": "length",
          "type": "uint256"
        }
      ],
      "name": "ECDSAInvalidSignatureLength",
      "type": "error"
    },
    {
      "inputs": [
        {
          "internalType": "bytes32",
          "name": "s",
          "type": "bytes32"
        }
      ],
      "name": "ECDSAInvalidSignatureS",
      "type": "error"
    },
    {
      "inputs": [
        {
          "internalType": "address",
          "name": "sender",
          "type": "address"
        },
        {
          "internalType": "uint256",
          "name": "balance",
          "type": "uint256"
        },
        {
          "internalType": "uint256",
          "name": "needed",
          "type": "uint256"
        },
        {
          "internalType": "uint256",
          "name": "tokenId",
          "type": "uint256"
        }
      ],
      "name": "ERC1155InsufficientBalance",
      "type": "error"
    },
    {
      "inputs": [
        {
          "internalType": "address",
          "name": "approver",
          "type": "address"
        }
      ],
      "name": "ERC1155InvalidApprover",
      "type": "error"
    },
    {
      "inputs": [
        {
          "internalType": "uint256",
          "name": "idsLength",
          "type": "uint256"
        },
        {
          "internalType": "uint256",
          "name": "valuesLength",
          "type": "uint256"
        }
      ],
      "name": "ERC1155InvalidArrayLength",
      "type": "error"
    },
    {
      "inputs": [
        {
          "internalType": "address",
          "name": "operator",
          "type": "address"
        }
      ],
      "name": "ERC1155InvalidOperator",
      "type": "error"
    },
    {
      "inputs": [
        {
          "internalType": "address",
          "name": "receiver",
          "type": "address"
        }
      ],
      "name": "ERC1155InvalidReceiver",
      "type": "error"
    },
    {
      "inputs": [
        {
          "internalType": "address",
          "name": "sender",
          "type": "address"
        }
      ],
      "name": "ERC1155InvalidSender",
      "type": "error"
    },
    {
      "inputs": [
        {
          "internalType": "address",
          "name": "operator",
          "type": "address"
        },
        {
          "internalType": "address",
          "name": "owner",
          "type": "address"
        }
      ],
      "name": "ERC1155MissingApprovalForAll",
      "type": "error"
    },
    {
      "inputs": [],
      "name": "InvalidShortString",
      "type": "error"
    },
    {
      "inputs": [
        {
          "internalType": "address",
          "name": "owner",
          "type": "address"
        }
      ],
      "name": "OwnableInvalidOwner",
      "type": "error"
    },
    {
      "inputs": [
        {
          "internalType": "address",
          "name": "account",
          "type": "address"
        }
      ],
      "name": "OwnableUnauthorizedAccount",
      "type": "error"
    },
    {
      "inputs": [
        {
          "internalType": "string",
          "name": "str",
          "type": "string"
        }
      ],
      "name": "StringTooLong",
      "type": "error"
    },
    {
      "anonymous": false,
      "inputs": [
        {
          "indexed": true,
          "internalType": "address",
          "name": "account",
          "type": "address"
        },
        {
          "indexed": true,
          "internalType": "address",
          "name": "operator",
          "type": "address"
        },
        {
          "indexed": false,
          "internalType": "bool",
          "name": "approved",
          "type": "bool"
        }
      ],
      "name": "ApprovalForAll",
      "type": "event"
    },
    {
      "anonymous": false,
      "inputs": [
        {
          "indexed": true,
          "internalType": "address",
          "name": "signer",
          "type": "address"
        }
      ],
      "name": "AuthSignerUpdated",
      "type": "event"
    },
    {
      "anonymous": false,
      "inputs": [],
      "name": "EIP712DomainChanged",
      "type": "event"
    },
    {
      "anonymous": false,
      "inputs": [
        {
          "indexed": true,
          "internalType": "address",
          "name": "previousOwner",
          "type": "address"
        },
        {
          "indexed": true,
          "internalType": "address",
          "name": "newOwner",
          "type": "address"
        }
      ],
      "name": "OwnershipTransferred",
      "type": "event"
    },
    {
      "anonymous": false,
      "inputs": [
        {
          "indexed": true,
          "internalType": "address",
          "name": "operator",
          "type": "address"
        },
        {
          "indexed": true,
          "internalType": "address",
          "name": "from",
          "type": "address"
        },
        {
          "indexed": true,
          "internalType": "address",
          "name": "to",
          "type": "address"
        },
        {
          "indexed": false,
          "internalType": "uint256[]",
          "name": "ids",
          "type": "uint256[]"
        },
        {
          "indexed": false,
          "internalType": "uint256[]",
          "name": "values",
          "type": "uint256[]"
        }
      ],
      "name": "TransferBatch",
      "type": "event"
    },
    {
      "anonymous": false,
      "inputs": [
        {
          "indexed": true,
          "internalType": "address",
          "name": "operator",
          "type": "address"
        },
        {
          "indexed": true,
          "internalType": "address",
          "name": "from",
          "type": "address"
        },
        {
          "indexed": true,
          "internalType": "address",
          "name": "to",
          "type": "address"
        },
        {
          "indexed": false,
          "internalType": "uint256",
          "name": "id",
          "type": "uint256"
        },
        {
          "indexed": false,
          "internalType": "uint256",
          "name": "value",
          "type": "uint256"
        }
      ],
      "name": "TransferSingle",
      "type": "event"
    },
    {
      "anonymous": false,
      "inputs": [
        {
          "indexed": false,
          "internalType": "string",
          "name": "value",
          "type": "string"
        },
        {
          "indexed": true,
          "internalType": "uint256",
          "name": "id",
          "type": "uint256"
        }
      ],
      "name": "URI",
      "type": "event"
    },
    {
      "inputs": [],
      "name": "authSigner",
      "outputs": [
        {
          "internalType": "address",
          "name": "",
          "type": "address"
        }
      ],
      "stateMutability": "view",
      "type": "function"
    },
    {
      "inputs": [
        {
          "internalType": "address",
          "name": "account",
          "type": "address"
        },
        {
          "internalType": "uint256",
          "name": "id",
          "type": "uint256"
        }
      ],
      "name": "balanceOf",
      "outputs": [
        {
          "internalType": "uint256",
          "name": "",
          "type": "uint256"
        }
      ],
      "stateMutability": "view",
      "type": "function"
    },
    {
      "inputs": [
        {
          "internalType": "address[]",
          "name": "accounts",
          "type": "address[]"
        },
        {
          "internalType": "uint256[]",
          "name": "ids",
          "type": "uint256[]"
        }
      ],
      "name": "balanceOfBatch",
      "outputs": [
        {
          "internalType": "uint256[]",
          "name": "",
          "type": "uint256[]"
        }
      ],
      "stateMutability": "view",
      "type": "function"
    },
    {
      "inputs": [],
      "name": "eip712Domain",
      "outputs": [
        {
          "internalType": "bytes1",
          "name": "fields",
          "type": "bytes1"
        },
        {
          "internalType": "string",
          "name": "name",
          "type": "string"
        },
        {
          "internalType": "string",
          "name": "version",
          "type": "string"
        },
        {
          "internalType": "uint256",
          "name": "chainId",
          "type": "uint256"
        },
        {
          "internalType": "address",
          "name": "verifyingContract",
          "type": "address"
        },
        {
          "internalType": "bytes32",
          "name": "salt",
          "type": "bytes32"
        },
        {
          "internalType": "uint256[]",
          "name": "extensions",
          "type": "uint256[]"
        }
      ],
      "stateMutability": "view",
      "type": "function"
    },
    {
      "inputs": [
        {
          "internalType": "address",
          "name": "account",
          "type": "address"
        },
        {
          "internalType": "address",
          "name": "operator",
          "type": "address"
        }
      ],
      "name": "isApprovedForAll",
      "outputs": [
        {
          "internalType": "bool",
          "name": "",
          "type": "bool"
        }
      ],
      "stateMutability": "view",
      "type": "function"
    },
    {
      "inputs": [
        {
          "internalType": "uint256",
          "name": "yyyymmdd",
          "type": "uint256"
        }
      ],
      "name": "mintSolved",
      "outputs": [],
      "stateMutability": "nonpayable",
      "type": "function"
    },
    {
      "inputs": [
        {
          "internalType": "uint256",
          "name": "yyyymmdd",
          "type": "uint256"
        },
        {
          "internalType": "uint256",
          "name": "deadline",
          "type": "uint256"
        },
        {
          "internalType": "bytes",
          "name": "signature",
          "type": "bytes"
        }
      ],
      "name": "mintSolvedWithSig",
      "outputs": [],
      "stateMutability": "nonpayable",
      "type": "function"
    },
    {
      "inputs": [
        {
          "internalType": "uint256",
          "name": "",
          "type": "uint256"
        },
        {
          "internalType": "address",
          "name": "",
          "type": "address"
        }
      ],
      "name": "minted",
      "outputs": [
        {
          "internalType": "bool",
          "name": "",
          "type": "bool"
        }
      ],
      "stateMutability": "view",
      "type": "function"
    },
    {
      "inputs": [],
      "name": "owner",
      "outputs": [
        {
          "internalType": "address",
          "name": "",
          "type": "address"
        }
      ],
      "stateMutability": "view",
      "type": "function"
    },
    {
      "inputs": [],
      "name": "renounceOwnership",
      "outputs": [],
      "stateMutability": "nonpayable",
      "type": "function"
    },
    {
      "inputs": [
        {
          "internalType": "address",
          "name": "from",
          "type": "address"
        },
        {
          "internalType": "address",
          "name": "to",
          "type": "address"
        },
        {
          "internalType": "uint256[]",
          "name": "ids",
          "type": "uint256[]"
        },
        {
          "internalType": "uint256[]",
          "name": "values",
          "type": "uint256[]"
        },
        {
          "internalType": "bytes",
          "name": "data",
          "type": "bytes"
        }
      ],
      "name": "safeBatchTransferFrom",
      "outputs": [],
      "stateMutability": "nonpayable",
      "type": "function"
    },
    {
      "inputs": [
        {
          "internalType": "address",
          "name": "from",
          "type": "address"
        },
        {
          "internalType": "address",
          "name": "to",
          "type": "address"
        },
        {
          "internalType": "uint256",
          "name": "id",
          "type": "uint256"
        },
        {
          "internalType": "uint256",
          "name": "value",
          "type": "uint256"
        },
        {
          "internalType": "bytes",
          "name": "data",
          "type": "bytes"
        }
      ],
      "name": "safeTransferFrom",
      "outputs": [],
      "stateMutability": "nonpayable",
      "type": "function"
    },
    {
      "inputs": [
        {
          "internalType": "address",
          "name": "operator",
          "type": "address"
        },
        {
          "internalType": "bool",
          "name": "approved",
          "type": "bool"
        }
      ],
      "name": "setApprovalForAll",
      "outputs": [],
      "stateMutability": "nonpayable",
      "type": "function"
    },
    {
      "inputs": [
        {
          "internalType": "address",
          "name": "signer",
          "type": "address"
        }
      ],
      "name": "setAuthSigner",
      "outputs": [],
      "stateMutability": "nonpayable",
      "type": "function"
    },
    {
      "inputs": [
        {
          "internalType": "bytes4",
          "name": "interfaceId",
          "type": "bytes4"
        }
      ],
      "name": "supportsInterface",
      "outputs": [
        {
          "internalType": "bool",
          "name": "",
          "type": "bool"
        }
      ],
      "stateMutability": "view",
      "type": "function"
    },
    {
      "inputs": [
        {
          "internalType": "address",
          "name": "newOwner",
          "type": "address"
        }
      ],
      "name": "transferOwnership",
      "outputs": [],
      "stateMutability": "nonpayable",
      "type": "function"
    },
    {
      "inputs": [
        {
          "internalType": "uint256",
          "name": "id",
          "type": "uint256"
        }
      ],
      "name": "uri",
      "outputs": [
        {
          "internalType": "string",
          "name": "",
          "type": "string"
        }
      ],
      "stateMutability": "view",
      "type": "function"
    }
  ],
  "transactionHash": "0x1c1eacc39498f0e0ddd0f5d2f63c2308c028239dc97eac4031f4863e7e12404a",
  "args": [
    "0x83380044673fe13afa2A6eCf6F420928DAfa0860"
  ],
  "numDeployments": 1,
  "solcInputHash": "89d12066aa63eb5f8fd88f7447c824f1",
  "bytecode": "0x610160604052348015610010575f5ffd5b5060405161266138038061266183398101604081905261002f9161024d565b6040518060400160405280600e81526020016d11185a5b1e541d5e9e9b1953919560921b815250604051806040016040528060018152602001603160f81b8152508260405180602001604052805f81525061008f8161017d60201b60201c565b506001600160a01b0381166100be57604051631e4fbdf760e01b81525f60048201526024015b60405180910390fd5b6100c78161018d565b506100d38260046101de565b610120526100e28160056101de565b61014052815160208084019190912060e052815190820120610100524660a05261016e60e05161010051604080517f8b73c3c69bb8fe3d512ecc4cf759cc79239f7b179b0ffacaa9a75d522b39400f60208201529081019290925260608201524660808201523060a08201525f9060c00160405160208183030381529060405280519060200120905090565b60805250503060c05250610424565b60026101898282610312565b5050565b600380546001600160a01b038381166001600160a01b0319831681179093556040519116919082907f8be0079c531659141344cd1fd0a4f28419497f9722a3daafe3b4186f6b6457e0905f90a35050565b5f6020835110156101f9576101f283610210565b905061020a565b816102048482610312565b5060ff90505b92915050565b5f5f829050601f8151111561023a578260405163305a27a960e01b81526004016100b591906103cc565b805161024582610401565b179392505050565b5f6020828403121561025d575f5ffd5b81516001600160a01b0381168114610273575f5ffd5b9392505050565b634e487b7160e01b5f52604160045260245ffd5b600181811c908216806102a257607f821691505b6020821081036102c057634e487b7160e01b5f52602260045260245ffd5b50919050565b601f82111561030d57805f5260205f20601f840160051c810160208510156102eb5750805b601f840160051c820191505b8181101561030a575f81556001016102f7565b50505b505050565b81516001600160401b0381111561032b5761032b61027a565b61033f81610339845461028e565b846102c6565b6020601f821160018114610371575f831561035a5750848201515b5f19600385901b1c1916600184901b17845561030a565b5f84815260208120601f198516915b828110156103a05787850151825560209485019460019092019101610380565b50848210156103bd57868401515f19600387901b60f8161c191681555b50505050600190811b01905550565b602081525f82518060208401528060208501604085015e5f604082850101526040601f19601f83011684010191505092915050565b805160208083015191908110156102c0575f1960209190910360031b1b16919050565b60805160a05160c05160e0516101005161012051610140516121ec6104755f395f610bf401525f610bc201525f61121301525f6111eb01525f61114601525f61117001525f61119a01526121ec5ff3fe608060405234801561000f575f5ffd5b5060043610610114575f3560e01c806384b0196e116100ad578063b42348ac1161007d578063e985e9c511610063578063e985e9c51461028a578063f242432a146102c5578063f2fde38b146102d8575f5ffd5b8063b42348ac14610264578063ded703f414610277575f5ffd5b806384b0196e146101fe5780638da5cb5b14610219578063a22cb4651461023e578063a2efbdba14610251575f5ffd5b80632eb2c2d6116100e85780632eb2c2d6146101965780634e1273f4146101a95780636887a0e5146101c9578063715018a6146101f6575f5ffd5b8062fdd58e1461011857806301ffc9a71461013e5780630532bca1146101615780630e89341c14610176575b5f5ffd5b61012b6101263660046118c2565b6102eb565b6040519081526020015b60405180910390f35b61015161014c3660046118ff565b610312565b6040519015158152602001610135565b61017461016f36600461191a565b610361565b005b610189610184366004611933565b6103bf565b6040516101359190611978565b6101746101a4366004611ac8565b61047d565b6101bc6101b7366004611b77565b610507565b6040516101359190611c74565b6101516101d7366004611c86565b600660209081525f928352604080842090915290825290205460ff1681565b6101746105d2565b6102066105e5565b6040516101359796959493929190611cb0565b6003546001600160a01b03165b6040516001600160a01b039091168152602001610135565b61017461024c366004611d1d565b610627565b61017461025f366004611d56565b610636565b600754610226906001600160a01b031681565b610174610285366004611933565b6108a5565b610151610298366004611dd2565b6001600160a01b039182165f90815260016020908152604080832093909416825291909152205460ff1690565b6101746102d3366004611dfa565b610951565b6101746102e636600461191a565b6109ce565b5f818152602081815260408083206001600160a01b03861684529091529020545b92915050565b5f6001600160e01b03198216636cdb3d1360e11b148061034257506001600160e01b031982166303a24d0760e21b145b8061030c57506301ffc9a760e01b6001600160e01b031983161461030c565b610369610a08565b6007805473ffffffffffffffffffffffffffffffffffffffff19166001600160a01b0383169081179091556040517f575267db3688490505ac9b66947aff797acf2fa8e34dd807a7168c5b52d4c7a4905f90a250565b60605f6103cb83610a35565b6040516020016103db9190611e65565b60405160208183030381529060405290505f6103f684610a35565b6040516020016104069190611e96565b60405160208183030381529060405290505f828261042387610a35565b60405160200161043593929190611ec7565b60405160208183030381529060405290505f61045082610ad2565b9050806040516020016104639190611fc0565b604051602081830303815290604052945050505050919050565b336001600160a01b03861681148015906104bc57506001600160a01b038087165f9081526001602090815260408083209385168352929052205460ff16155b156104f25760405163711bec9160e11b81526001600160a01b038083166004830152871660248201526044015b60405180910390fd5b6104ff8686868686610af8565b505050505050565b606081518351146105385781518351604051635b05999160e01b8152600481019290925260248201526044016104e9565b5f835167ffffffffffffffff8111156105535761055361198a565b60405190808252806020026020018201604052801561057c578160200160208202803683370190505b5090505f5b84518110156105ca576020808202860101516105a5906020808402870101516102eb565b8282815181106105b7576105b7611ff1565b6020908102919091010152600101610581565b509392505050565b6105da610a08565b6105e35f610b5d565b565b5f6060805f5f5f60606105f6610bbb565b6105fe610bed565b604080515f80825260208201909252600f60f81b9b939a50919850469750309650945092509050565b610632338383610c1a565b5050565b824211156106865760405162461bcd60e51b815260206004820152601160248201527f5369676e6174757265206578706972656400000000000000000000000000000060448201526064016104e9565b5f84815260066020908152604080832033845290915290205460ff16156106ef5760405162461bcd60e51b815260206004820152601b60248201527f416c7265616479206d696e74656420666f72207468697320646179000000000060448201526064016104e9565b6007546001600160a01b03166107475760405162461bcd60e51b815260206004820152601360248201527f41757468207369676e6572206e6f74207365740000000000000000000000000060448201526064016104e9565b604080517fa2ed704536baa0d7a95d0be3539dc82ef6ed21296ce9d2f3614819e16b523ce960208201523391810191909152606081018590523060808201524660a082015260c081018490525f9060e0016040516020818303038152906040528051906020012090505f6107ba82610cae565b90505f6107fc8286868080601f0160208091040260200160405190810160405280939291908181526020018383808284375f92019190915250610cda92505050565b6007549091506001600160a01b0380831691161461085c5760405162461bcd60e51b815260206004820152601160248201527f496e76616c6964207369676e617475726500000000000000000000000000000060448201526064016104e9565b5f87815260066020908152604080832033808552908352818420805460ff19166001908117909155825193840190925292825261089c92918a9190610d02565b50505050505050565b5f81815260066020908152604080832033845290915290205460ff161561090e5760405162461bcd60e51b815260206004820152601b60248201527f416c7265616479206d696e74656420666f72207468697320646179000000000060448201526064016104e9565b5f81815260066020908152604080832033808552908352818420805460ff19166001908117909155825193840190925292825261094e9291849190610d02565b50565b336001600160a01b038616811480159061099057506001600160a01b038087165f9081526001602090815260408083209385168352929052205460ff16155b156109c15760405163711bec9160e11b81526001600160a01b038083166004830152871660248201526044016104e9565b6104ff8686868686610d5d565b6109d6610a08565b6001600160a01b0381166109ff57604051631e4fbdf760e01b81525f60048201526024016104e9565b61094e81610b5d565b6003546001600160a01b031633146105e35760405163118cdaa760e01b81523360048201526024016104e9565b60605f610a4183610de0565b60010190505f8167ffffffffffffffff811115610a6057610a6061198a565b6040519080825280601f01601f191660200182016040528015610a8a576020820181803683370190505b5090508181016020015b5f19017f3031323334353637383961626364656600000000000000000000000000000000600a86061a8153600a8504945084610a9457509392505050565b606061030c826040518060600160405280604081526020016121a0604091396001610ec1565b6001600160a01b038416610b2157604051632bfa23e760e11b81525f60048201526024016104e9565b6001600160a01b038516610b4957604051626a0d4560e21b81525f60048201526024016104e9565b610b56858585858561103e565b5050505050565b600380546001600160a01b0383811673ffffffffffffffffffffffffffffffffffffffff19831681179093556040519116919082907f8be0079c531659141344cd1fd0a4f28419497f9722a3daafe3b4186f6b6457e0905f90a35050565b6060610be87f00000000000000000000000000000000000000000000000000000000000000006004611091565b905090565b6060610be87f00000000000000000000000000000000000000000000000000000000000000006005611091565b6001600160a01b038216610c425760405162ced3e160e81b81525f60048201526024016104e9565b6001600160a01b038381165f81815260016020908152604080832094871680845294825291829020805460ff191686151590811790915591519182527f17307eab39ab6107e8899845ad3d59bd9653f200f220920489ca2b5937696c31910160405180910390a3505050565b5f61030c610cba61113a565b8360405161190160f01b8152600281019290925260228201526042902090565b5f5f5f5f610ce88686611263565b925092509250610cf882826112ac565b5090949350505050565b6001600160a01b038416610d2b57604051632bfa23e760e11b81525f60048201526024016104e9565b604080516001808252602082018690528183019081526060820185905260808201909252906104ff5f8784848761103e565b6001600160a01b038416610d8657604051632bfa23e760e11b81525f60048201526024016104e9565b6001600160a01b038516610dae57604051626a0d4560e21b81525f60048201526024016104e9565b6040805160018082526020820186905281830190815260608201859052608082019092529061089c878784848761103e565b5f807a184f03e93ff9f4daa797ed6e38ed64bf6a1f0100000000000000008310610e28577a184f03e93ff9f4daa797ed6e38ed64bf6a1f010000000000000000830492506040015b6d04ee2d6d415b85acef81000000008310610e54576d04ee2d6d415b85acef8100000000830492506020015b662386f26fc100008310610e7257662386f26fc10000830492506010015b6305f5e1008310610e8a576305f5e100830492506008015b6127108310610e9e57612710830492506004015b60648310610eb0576064830492506002015b600a831061030c5760010192915050565b606083515f03610edf575060408051602081019091525f8152611037565b5f82610f0f57600385516004610ef59190612019565b610f00906002612030565b610f0a9190612043565b610f34565b600385516002610f1f9190612030565b610f299190612043565b610f34906004612019565b90505f8167ffffffffffffffff811115610f5057610f5061198a565b6040519080825280601f01601f191660200182016040528015610f7a576020820181803683370190505b509050600185016020820187885189016020810180515f82525b82841015610fef576003840193508351603f8160121c168701518653600186019550603f81600c1c168701518653600186019550603f8160061c168701518653600186019550603f8116870151865350600185019450610f94565b9052505085156110305760038851066001811461101357600281146110265761102e565b603d6001830353603d600283035361102e565b603d60018303535b505b5090925050505b9392505050565b61104a85858585611364565b6001600160a01b03841615610b565782513390600103611083576020848101519084015161107c838989858589611573565b50506104ff565b6104ff818787878787611694565b606060ff83146110ab576110a48361177b565b905061030c565b8180546110b790612062565b80601f01602080910402602001604051908101604052809291908181526020018280546110e390612062565b801561112e5780601f106111055761010080835404028352916020019161112e565b820191905f5260205f20905b81548152906001019060200180831161111157829003601f168201915b5050505050905061030c565b5f306001600160a01b037f00000000000000000000000000000000000000000000000000000000000000001614801561119257507f000000000000000000000000000000000000000000000000000000000000000046145b156111bc57507f000000000000000000000000000000000000000000000000000000000000000090565b610be8604080517f8b73c3c69bb8fe3d512ecc4cf759cc79239f7b179b0ffacaa9a75d522b39400f60208201527f0000000000000000000000000000000000000000000000000000000000000000918101919091527f000000000000000000000000000000000000000000000000000000000000000060608201524660808201523060a08201525f9060c00160405160208183030381529060405280519060200120905090565b5f5f5f835160410361129a576020840151604085015160608601515f1a61128c888285856117b8565b9550955095505050506112a5565b505081515f91506002905b9250925092565b5f8260038111156112bf576112bf61209a565b036112c8575050565b60018260038111156112dc576112dc61209a565b036112fa5760405163f645eedf60e01b815260040160405180910390fd5b600282600381111561130e5761130e61209a565b0361132f5760405163fce698f760e01b8152600481018290526024016104e9565b60038260038111156113435761134361209a565b03610632576040516335e2f38360e21b8152600481018290526024016104e9565b80518251146113935781518151604051635b05999160e01b8152600481019290925260248201526044016104e9565b335f5b8351811015611495576020818102858101820151908501909101516001600160a01b03881615611447575f828152602081815260408083206001600160a01b038c16845290915290205481811015611421576040516303dee4c560e01b81526001600160a01b038a1660048201526024810182905260448101839052606481018490526084016104e9565b5f838152602081815260408083206001600160a01b038d16845290915290209082900390555b6001600160a01b0387161561148b575f828152602081815260408083206001600160a01b038b16845290915281208054839290611485908490612030565b90915550505b5050600101611396565b5082516001036115155760208301515f906020840151909150856001600160a01b0316876001600160a01b0316846001600160a01b03167fc3d58168c5ae7397731d063d5bbf3d657854427343f4c083240f7aacaa2d0f628585604051611506929190918252602082015260400190565b60405180910390a45050610b56565b836001600160a01b0316856001600160a01b0316826001600160a01b03167f4a39dc06d4c0dbc64b70af90fd698a233a518aa5d07e595d983b8c0526c8f7fb86866040516115649291906120ae565b60405180910390a45050505050565b6001600160a01b0384163b156104ff5760405163f23a6e6160e01b81526001600160a01b0385169063f23a6e61906115b790899089908890889088906004016120db565b6020604051808303815f875af19250505080156115f1575060408051601f3d908101601f191682019092526115ee91810190612122565b60015b611658573d80801561161e576040519150601f19603f3d011682016040523d82523d5f602084013e611623565b606091505b5080515f0361165057604051632bfa23e760e11b81526001600160a01b03861660048201526024016104e9565b805160208201fd5b6001600160e01b0319811663f23a6e6160e01b1461089c57604051632bfa23e760e11b81526001600160a01b03861660048201526024016104e9565b6001600160a01b0384163b156104ff5760405163bc197c8160e01b81526001600160a01b0385169063bc197c81906116d8908990899088908890889060040161213d565b6020604051808303815f875af1925050508015611712575060408051601f3d908101601f1916820190925261170f91810190612122565b60015b61173f573d80801561161e576040519150601f19603f3d011682016040523d82523d5f602084013e611623565b6001600160e01b0319811663bc197c8160e01b1461089c57604051632bfa23e760e11b81526001600160a01b03861660048201526024016104e9565b60605f61178783611880565b6040805160208082528183019092529192505f91906020820181803683375050509182525060208101929092525090565b5f80807f7fffffffffffffffffffffffffffffff5d576e7357a4501ddfe92f46681b20a08411156117f157505f91506003905082611876565b604080515f808252602082018084528a905260ff891692820192909252606081018790526080810186905260019060a0016020604051602081039080840390855afa158015611842573d5f5f3e3d5ffd5b5050604051601f1901519150506001600160a01b03811661186d57505f925060019150829050611876565b92505f91508190505b9450945094915050565b5f60ff8216601f81111561030c57604051632cd44ac360e21b815260040160405180910390fd5b80356001600160a01b03811681146118bd575f5ffd5b919050565b5f5f604083850312156118d3575f5ffd5b6118dc836118a7565b946020939093013593505050565b6001600160e01b03198116811461094e575f5ffd5b5f6020828403121561190f575f5ffd5b8135611037816118ea565b5f6020828403121561192a575f5ffd5b611037826118a7565b5f60208284031215611943575f5ffd5b5035919050565b5f81518084528060208401602086015e5f602082860101526020601f19601f83011685010191505092915050565b602081525f611037602083018461194a565b634e487b7160e01b5f52604160045260245ffd5b604051601f8201601f1916810167ffffffffffffffff811182821017156119c7576119c761198a565b604052919050565b5f67ffffffffffffffff8211156119e8576119e861198a565b5060051b60200190565b5f82601f830112611a01575f5ffd5b8135611a14611a0f826119cf565b61199e565b8082825260208201915060208360051b860101925085831115611a35575f5ffd5b602085015b83811015611a52578035835260209283019201611a3a565b5095945050505050565b5f82601f830112611a6b575f5ffd5b813567ffffffffffffffff811115611a8557611a8561198a565b611a98601f8201601f191660200161199e565b818152846020838601011115611aac575f5ffd5b816020850160208301375f918101602001919091529392505050565b5f5f5f5f5f60a08688031215611adc575f5ffd5b611ae5866118a7565b9450611af3602087016118a7565b9350604086013567ffffffffffffffff811115611b0e575f5ffd5b611b1a888289016119f2565b935050606086013567ffffffffffffffff811115611b36575f5ffd5b611b42888289016119f2565b925050608086013567ffffffffffffffff811115611b5e575f5ffd5b611b6a88828901611a5c565b9150509295509295909350565b5f5f60408385031215611b88575f5ffd5b823567ffffffffffffffff811115611b9e575f5ffd5b8301601f81018513611bae575f5ffd5b8035611bbc611a0f826119cf565b8082825260208201915060208360051b850101925087831115611bdd575f5ffd5b6020840193505b82841015611c0657611bf5846118a7565b825260209384019390910190611be4565b9450505050602083013567ffffffffffffffff811115611c24575f5ffd5b611c30858286016119f2565b9150509250929050565b5f8151808452602084019350602083015f5b82811015611c6a578151865260209586019590910190600101611c4c565b5093949350505050565b602081525f6110376020830184611c3a565b5f5f60408385031215611c97575f5ffd5b82359150611ca7602084016118a7565b90509250929050565b60ff60f81b8816815260e060208201525f611cce60e083018961194a565b8281036040840152611ce0818961194a565b90508660608401526001600160a01b03861660808401528460a084015282810360c0840152611d0f8185611c3a565b9a9950505050505050505050565b5f5f60408385031215611d2e575f5ffd5b611d37836118a7565b915060208301358015158114611d4b575f5ffd5b809150509250929050565b5f5f5f5f60608587031215611d69575f5ffd5b8435935060208501359250604085013567ffffffffffffffff811115611d8d575f5ffd5b8501601f81018713611d9d575f5ffd5b803567ffffffffffffffff811115611db3575f5ffd5b876020828401011115611dc4575f5ffd5b949793965060200194505050565b5f5f60408385031215611de3575f5ffd5b611dec836118a7565b9150611ca7602084016118a7565b5f5f5f5f5f60a08688031215611e0e575f5ffd5b611e17866118a7565b9450611e25602087016118a7565b93506040860135925060608601359150608086013567ffffffffffffffff811115611b5e575f5ffd5b5f81518060208401855e5f93019283525090919050565b7f4461696c7950757a7a6c65536f6c766564202d2000000000000000000000000081525f6110376014830184611e4e565b7f576f72646c65206461696c792070757a7a6c6520736f6c766564206f6e20000081525f611037601e830184611e4e565b607b60f81b81527f226e616d65223a2200000000000000000000000000000000000000000000000060018201525f611f026009830186611e4e565b61088b60f21b81527f226465736372697074696f6e223a2200000000000000000000000000000000006002820152611f3d6011820186611e4e565b61088b60f21b81527f2261747472696275746573223a5b7b2274726169745f74797065223a2244617960028201527f222c2276616c7565223a2200000000000000000000000000000000000000000060228201529050611fa0602d820185611e4e565b62227d5d60e81b8152607d60f81b60038201526004019695505050505050565b7f646174613a6170706c69636174696f6e2f6a736f6e3b6261736536342c00000081525f611037601d830184611e4e565b634e487b7160e01b5f52603260045260245ffd5b634e487b7160e01b5f52601160045260245ffd5b808202811582820484141761030c5761030c612005565b8082018082111561030c5761030c612005565b5f8261205d57634e487b7160e01b5f52601260045260245ffd5b500490565b600181811c9082168061207657607f821691505b60208210810361209457634e487b7160e01b5f52602260045260245ffd5b50919050565b634e487b7160e01b5f52602160045260245ffd5b604081525f6120c06040830185611c3a565b82810360208401526120d28185611c3a565b95945050505050565b6001600160a01b03861681526001600160a01b038516602082015283604082015282606082015260a060808201525f61211760a083018461194a565b979650505050505050565b5f60208284031215612132575f5ffd5b8151611037816118ea565b6001600160a01b03861681526001600160a01b038516602082015260a060408201525f61216d60a0830186611c3a565b828103606084015261217f8186611c3a565b90508281036080840152612193818561194a565b9897505050505050505056fe4142434445464748494a4b4c4d4e4f505152535455565758595a6162636465666768696a6b6c6d6e6f707172737475767778797a303132333435363738392b2fa164736f6c634300081b000a",
  "devdoc": {
    "errors": {
      "ECDSAInvalidSignature()": [
        {
          "details": "The signature derives the `address(0)`."
        }
      ],
      "ECDSAInvalidSignatureLength(uint256)": [
        {
          "details": "The signature has an invalid length."
        }
      ],
      "ECDSAInvalidSignatureS(bytes32)": [
        {
          "details": "The signature has an S value that is in the upper half order."
        }
      ],
      "ERC1155InsufficientBalance(address,uint256,uint256,uint256)": [
        {
          "details": "Indicates an error related to the current `balance` of a `sender`. Used in transfers.",
          "params": {
            "balance": "Current balance for the interacting account.",
            "needed": "Minimum amount required to perform a transfer.",
            "sender": "Address whose tokens are being transferred.",
            "tokenId": "Identifier number of a token."
          }
        }
      ],
      "ERC1155InvalidApprover(address)": [
        {
          "details": "Indicates a failure with the `approver` of a token to be approved. Used in approvals.",
          "params": {
            "approver": "Address initiating an approval operation."
          }
        }
      ],
      "ERC1155InvalidArrayLength(uint256,uint256)": [
        {
          "details": "Indicates an array length mismatch between ids and values in a safeBatchTransferFrom operation. Used in batch transfers.",
          "params": {
            "idsLength": "Length of the array of token identifiers",
            "valuesLength": "Length of the array of token amounts"
          }
        }
      ],
      "ERC1155InvalidOperator(address)": [
        {
          "details": "Indicates a failure with the `operator` to be approved. Used in approvals.",
          "params": {
            "operator": "Address that may be allowed to operate on tokens without being their owner."
          }
        }
      ],
      "ERC1155InvalidReceiver(address)": [
        {
          "details": "Indicates a failure with the token `receiver`. Used in transfers.",
          "params": {
            "receiver": "Address to which tokens are being transferred."
          }
        }
      ],
      "ERC1155InvalidSender(address)": [
        {
          "details": "Indicates a failure with the token `sender`. Used in transfers.",
          "params": {
            "sender": "Address whose tokens are being transferred."
          }
        }
      ],
      "ERC1155MissingApprovalForAll(address,address)": [
        {
          "details": "Indicates a failure with the `operator`s approval. Used in transfers.",
          "params": {
            "operator": "Address that may be allowed to operate on tokens without being their owner.",
            "owner": "Address of the current owner of a token."
          }
        }
      ],
      "OwnableInvalidOwner(address)": [
        {
          "details": "The owner is not a valid owner account. (eg. `address(0)`)"
        }
      ],
      "OwnableUnauthorizedAccount(address)": [
        {
          "details": "The caller account is not authorized to perform an operation."
        }
      ]
    },
    "events": {
      "ApprovalForAll(address,address,bool)": {
        "details": "Emitted when `account` grants or revokes permission to `operator` to transfer their tokens, according to `approved`."
      },
      "EIP712DomainChanged()": {
        "details": "MAY be emitted to signal that the domain could have changed."
      },
      "TransferBatch(address,address,address,uint256[],uint256[])": {
        "details": "Equivalent to multiple {TransferSingle} events, where `operator`, `from` and `to` are the same for all transfers."
      },
      "TransferSingle(address,address,address,uint256,uint256)": {
        "details": "Emitted when `value` amount of tokens of type `id` are transferred from `from` to `to` by `operator`."
      },
      "URI(string,uint256)": {
        "details": "Emitted when the URI for token type `id` changes to `value`, if it is a non-programmatic URI. If an {URI} event was emitted for `id`, the standard https://eips.ethereum.org/EIPS/eip-1155#metadata-extensions[guarantees] that `value` will equal the value returned by {IERC1155MetadataURI-uri}."
      }
    },
    "kind": "dev",
    "methods": {
      "balanceOf(address,uint256)": {
        "details": "Returns the value of tokens of token type `id` owned by `account`."
      },
      "balanceOfBatch(address[],uint256[])": {
        "details": "See {IERC1155-balanceOfBatch}. Requirements: - `accounts` and `ids` must have the same length."
      },
      "eip712Domain()": {
        "details": "returns the fields and values that describe the domain separator used by this contract for EIP-712 signature."
      },
      "isApprovedForAll(address,address)": {
        "details": "Returns true if `operator` is approved to transfer ``account``'s tokens. See {setApprovalForAll}."
      },
      "mintSolved(uint256)": {
        "params": {
          "yyyymmdd": "Date (e.g., 20251003)"
        }
      },
      "mintSolvedWithSig(uint256,uint256,bytes)": {
        "params": {
          "deadline": "Signature expiry (UNIX timestamp in seconds)",
          "signature": "EIP-712 signature (type Solved)",
          "yyyymmdd": "Date (e.g., 20251003)"
        }
      },
      "owner()": {
        "details": "Returns the address of the current owner."
      },
      "renounceOwnership()": {
        "details": "Leaves the contract without owner. It will not be possible to call `onlyOwner` functions. Can only be called by the current owner. NOTE: Renouncing ownership will leave the contract without an owner, thereby disabling any functionality that is only available to the owner."
      },
      "safeBatchTransferFrom(address,address,uint256[],uint256[],bytes)": {
        "details": "xref:ROOT:erc1155.adoc#batch-operations[Batched] version of {safeTransferFrom}. WARNING: This function can potentially allow a reentrancy attack when transferring tokens to an untrusted contract, when invoking {IERC1155Receiver-onERC1155BatchReceived} on the receiver. Ensure to follow the checks-effects-interactions pattern and consider employing reentrancy guards when interacting with untrusted contracts. Emits either a {TransferSingle} or a {TransferBatch} event, depending on the length of the array arguments. Requirements: - `ids` and `values` must have the same length. - If `to` refers to a smart contract, it must implement {IERC1155Receiver-onERC1155BatchReceived} and return the acceptance magic value."
      },
      "safeTransferFrom(address,address,uint256,uint256,bytes)": {
        "details": "Transfers a `value` amount of tokens of type `id` from `from` to `to`. WARNING: This function can potentially allow a reentrancy attack when transferring tokens to an untrusted contract, when invoking {IERC1155Receiver-onERC1155Received} on the receiver. Ensure to follow the checks-effects-interactions pattern and consider employing reentrancy guards when interacting with untrusted contracts. Emits a {TransferSingle} event. Requirements: - `to` cannot be the zero address. - If the caller is not `from`, it must have been approved to spend ``from``'s tokens via {setApprovalForAll}. - `from` must have a balance of tokens of type `id` of at least `value` amount. - If `to` refers to a smart contract, it must implement {IERC1155Receiver-onERC1155Received} and return the acceptance magic value."
      },
      "setApprovalForAll(address,bool)": {
        "details": "Grants or revokes permission to `operator` to transfer the caller's tokens, according to `approved`, Emits an {ApprovalForAll} event. Requirements: - `operator` cannot be the zero address."
      },
      "supportsInterface(bytes4)": {
        "details": "Returns true if this contract implements the interface defined by `interfaceId`. See the corresponding https://eips.ethereum.org/EIPS/eip-165#how-interfaces-are-identified[ERC section] to learn more about how these ids are created. This function call must use less than 30 000 gas."
      },
      "transferOwnership(address)": {
        "details": "Transfers ownership of the contract to a new account (`newOwner`). Can only be called by the current owner."
      }
    },
    "title": "Daily Puzzle Solved NFT (ERC1155)",
    "version": 1
  },
  "userdoc": {
    "kind": "user",
    "methods": {
      "mintSolved(uint256)": {
        "notice": "User self-mint for the current or specified day"
      },
      "mintSolvedWithSig(uint256,uint256,bytes)": {
        "notice": "Signature-based mint: backend issues an EIP-712 signature after verifying user solved for the day; player mints on-chain using it"
      },
      "setAuthSigner(address)": {
        "notice": "Set the authorized signer address (only owner)"
      },
      "uri(uint256)": {
        "notice": "Return metadata for a given tokenId (data URI stored on-chain)"
      }
    },
    "notice": "One-time deployment; use YYYYMMDD as tokenId for each day; users can mint once after solving that day",
    "version": 1
  },
  "storageLayout": {
    "storage": [
      {
        "astId": 351,
        "contract": "contracts/DailyPuzzleNFT.sol:DailyPuzzleNFT",
        "label": "_balances",
        "offset": 0,
        "slot": "0",
        "type": "t_mapping(t_uint256,t_mapping(t_address,t_uint256))"
      },
      {
        "astId": 357,
        "contract": "contracts/DailyPuzzleNFT.sol:DailyPuzzleNFT",
        "label": "_operatorApprovals",
        "offset": 0,
        "slot": "1",
        "type": "t_mapping(t_address,t_mapping(t_address,t_bool))"
      },
      {
        "astId": 359,
        "contract": "contracts/DailyPuzzleNFT.sol:DailyPuzzleNFT",
        "label": "_uri",
        "offset": 0,
        "slot": "2",
        "type": "t_string_storage"
      },
      {
        "astId": 8,
        "contract": "contracts/DailyPuzzleNFT.sol:DailyPuzzleNFT",
        "label": "_owner",
        "offset": 0,
        "slot": "3",
        "type": "t_address"
      },
      {
        "astId": 5006,
        "contract": "contracts/DailyPuzzleNFT.sol:DailyPuzzleNFT",
        "label": "_nameFallback",
        "offset": 0,
        "slot": "4",
        "type": "t_string_storage"
      },
      {
        "astId": 5008,
        "contract": "contracts/DailyPuzzleNFT.sol:DailyPuzzleNFT",
        "label": "_versionFallback",
        "offset": 0,
        "slot": "5",
        "type": "t_string_storage"
      },
      {
        "astId": 8869,
        "contract": "contracts/DailyPuzzleNFT.sol:DailyPuzzleNFT",
        "label": "minted",
        "offset": 0,
        "slot": "6",
        "type": "t_mapping(t_uint256,t_mapping(t_address,t_bool))"
      },
      {
        "astId": 8871,
        "contract": "contracts/DailyPuzzleNFT.sol:DailyPuzzleNFT",
        "label": "authSigner",
        "offset": 0,
        "slot": "7",
        "type": "t_address"
      }
    ],
    "types": {
      "t_address": {
        "encoding": "inplace",
        "label": "address",
        "numberOfBytes": "20"
      },
      "t_bool": {
        "encoding": "inplace",
        "label": "bool",
        "numberOfBytes": "1"
      },
      "t_mapping(t_address,t_bool)": {
        "encoding": "mapping",
        "key": "t_address",
        "label": "mapping(address => bool)",
        "numberOfBytes": "32",
        "value": "t_bool"
      },
      "t_mapping(t_address,t_mapping(t_address,t_bool))": {
        "encoding": "mapping",
        "key": "t_address",
        "label": "mapping(address => mapping(address => bool))",
        "numberOfBytes": "32",
        "value": "t_mapping(t_address,t_bool)"
      },
      "t_mapping(t_address,t_uint256)": {
        "encoding": "mapping",
        "key": "t_address",
        "label": "mapping(address => uint256)",
        "numberOfBytes": "32",
        "value": "t_uint256"
      },
      "t_mapping(t_uint256,t_mapping(t_address,t_bool))": {
        "encoding": "mapping",
        "key": "t_uint256",
        "label": "mapping(uint256 => mapping(address => bool))",
        "numberOfBytes": "32",
        "value": "t_mapping(t_address,t_bool)"
      },
      "t_mapping(t_uint256,t_mapping(t_address,t_uint256))": {
        "encoding": "mapping",
        "key": "t_uint256",
        "label": "mapping(uint256 => mapping(address => uint256))",
        "numberOfBytes": "32",
        "value": "t_mapping(t_address,t_uint256)"
      },
      "t_string_storage": {
        "encoding": "bytes",
        "label": "string",
        "numberOfBytes": "32"
      },
      "t_uint256": {
        "encoding": "inplace",
        "label": "uint256",
        "numberOfBytes": "32"
      }
    }
  }
}